{
  "transactions": [
    {
      "hash": "0xed832562d35f8a69b1f2df60e9cf457032e038afb43398517ef45d7824ae0ece",
      "transactionType": "CALL",
      "contractName": null,
      "contractAddress": "0xdf4f1be1fc0222bb45c3a6b85f977ac89f49a9c5",
      "function": "addRequireAllCheck(address,bool)",
      "arguments": [
        "0x0324b4d8F786e11206F82e016DD4480de2332cF3",
        "true"
      ],
      "transaction": {
        "from": "0x45d6450fc59a6f8d9c753126ce1eff6fa4d7e0fb",
        "to": "0xdf4f1be1fc0222bb45c3a6b85f977ac89f49a9c5",
        "gas": "0x23748",
        "value": "0x0",
        "input": "0x29c7fe8c0000000000000000000000000324b4d8f786e11206f82e016dd4480de2332cf30000000000000000000000000000000000000000000000000000000000000001",
        "nonce": "0x10",
        "chainId": "0x14a34"
      },
      "additionalContracts": [],
      "isFixedGasLimit": false
    }
  ],
  "receipts": [
    {
      "status": "0x1",
      "cumulativeGasUsed": "0x38258",
      "logs": [],
      "logsBloom": "0x00000000000000000000000000000000000000000000000000000000000000000000000000000000000000000000000000000000000000000000000000000000000000000000000000000000000000000000000000000000000000000000000000000000000000000000000000000000000000000000000000000000000000000000000000000000000000000000000000000000000000000000000000000000000000000000000000000000000000000000000000000000000000000000000000000000000000000000000000000000000000000000000000000000000000000000000000000000000000000000000000000000000000000000000000000000",
      "type": "0x2",
      "transactionHash": "0xed832562d35f8a69b1f2df60e9cf457032e038afb43398517ef45d7824ae0ece",
      "transactionIndex": "0x2",
      "blockHash": "0xa88e31b21399c9d8e2eb5ed2d7637bc7bb6bf4946d5c422be747bde38698f1b5",
      "blockNumber": "0xc2f993",
      "gasUsed": "0x183e3",
      "effectiveGasPrice": "0x18e27",
      "from": "0x45d6450fc59a6f8d9c753126ce1eff6fa4d7e0fb",
      "to": "0xdf4f1be1fc0222bb45c3a6b85f977ac89f49a9c5",
      "contractAddress": null,
      "l1BaseFeeScalar": "0x44d",
      "l1BlobBaseFee": "0xb4c",
      "l1BlobBaseFeeScalar": "0xa118b",
      "l1Fee": "0x6a5e6ae1",
      "l1GasPrice": "0x3c601f67",
      "l1GasUsed": "0x640"
    }
  ],
  "libraries": [],
  "pending": [],
  "returns": {},
  "timestamp": 1721324044,
  "chain": 84532,
  "commit": "deea034"
}