{
  "transactions": [
    {
      "hash": "0x1d654344b2de8f22f1ecff0fb36b545113bf69057c4ef204d972df83d27ce313",
      "transactionType": "CALL",
      "contractName": null,
      "contractAddress": "0x73ba7d784d13ec0070a4ea6f49ff57dc007bb48d",
      "function": "processBulkTransactions(bytes[])",
      "arguments": [
        "[0x00000000000000000000000073ba7d784d13ec0070a4ea6f49ff57dc007bb48d0000000000000000000000000000000000000000000000000000000000000001, 0x00000000000000000000000073ba7d784d13ec0070a4ea6f49ff57dc007bb48d0000000000000000000000000000000000000000000000000000000000000002]"
      ],
      "transaction": {
        "from": "0x45d6450fc59a6f8d9c753126ce1eff6fa4d7e0fb",
        "to": "0x73ba7d784d13ec0070a4ea6f49ff57dc007bb48d",
        "gas": "0x10ce5",
        "value": "0x0",
        "input": "0x0b83249d00000000000000000000000000000000000000000000000000000000000000200000000000000000000000000000000000000000000000000000000000000002000000000000000000000000000000000000000000000000000000000000004000000000000000000000000000000000000000000000000000000000000000a0000000000000000000000000000000000000000000000000000000000000004000000000000000000000000073ba7d784d13ec0070a4ea6f49ff57dc007bb48d0000000000000000000000000000000000000000000000000000000000000001000000000000000000000000000000000000000000000000000000000000004000000000000000000000000073ba7d784d13ec0070a4ea6f49ff57dc007bb48d0000000000000000000000000000000000000000000000000000000000000002",
        "nonce": "0x13",
        "chainId": "0x14a34"
      },
      "additionalContracts": [],
      "isFixedGasLimit": false
    }
  ],
  "receipts": [
    {
      "status": "0x1",
      "cumulativeGasUsed": "0x1c8737",
      "logs": [
        {
          "address": "0x73ba7d784d13ec0070a4ea6f49ff57dc007bb48d",
          "topics": [
            "0x83363b78bdfbb23e2a61db7accc3c01fda29c5c5ec81888003cb962912618a7f",
            "0x00000000000000000000000045d6450fc59a6f8d9c753126ce1eff6fa4d7e0fb"
          ],
          "data": "0x0000000000000000000000000000000000000000000000000000000000000020000000000000000000000000000000000000000000000000000000000000004000000000000000000000000073ba7d784d13ec0070a4ea6f49ff57dc007bb48d0000000000000000000000000000000000000000000000000000000000000001",
          "blockHash": "0xcd33982b6ce5e63a4ba22f5c8e08ecadcf21eab43aa8b226dd6e7494cf86f8a9",
          "blockNumber": "0xde9787",
          "transactionHash": "0x1d654344b2de8f22f1ecff0fb36b545113bf69057c4ef204d972df83d27ce313",
          "transactionIndex": "0x9",
          "logIndex": "0x27",
          "removed": false
        },
        {
          "address": "0x73ba7d784d13ec0070a4ea6f49ff57dc007bb48d",
          "topics": [
            "0x83363b78bdfbb23e2a61db7accc3c01fda29c5c5ec81888003cb962912618a7f",
            "0x00000000000000000000000045d6450fc59a6f8d9c753126ce1eff6fa4d7e0fb"
          ],
          "data": "0x0000000000000000000000000000000000000000000000000000000000000020000000000000000000000000000000000000000000000000000000000000004000000000000000000000000073ba7d784d13ec0070a4ea6f49ff57dc007bb48d0000000000000000000000000000000000000000000000000000000000000002",
          "blockHash": "0xcd33982b6ce5e63a4ba22f5c8e08ecadcf21eab43aa8b226dd6e7494cf86f8a9",
          "blockNumber": "0xde9787",
          "transactionHash": "0x1d654344b2de8f22f1ecff0fb36b545113bf69057c4ef204d972df83d27ce313",
          "transactionIndex": "0x9",
          "logIndex": "0x28",
          "removed": false
        }
      ],
      "logsBloom": "0x00000000000000000000000000000000000000000000000000000000000000002000000000000000000000000000000000000000000000000000000000000000000000000000000000000000000000000000000000000040000000020000400000000000000000000000000000000000000000000000000000000200000000000000000000000000000000000000000000000000000000000000000000000000000800000000000000000000000000800000000000000000000000000000000000000000000000000000000000000000000000000000000000000000000000000000000000000000000000000000000000000000001000000000000000000400",
      "type": "0x2",
      "transactionHash": "0x1d654344b2de8f22f1ecff0fb36b545113bf69057c4ef204d972df83d27ce313",
      "transactionIndex": "0x9",
      "blockHash": "0xcd33982b6ce5e63a4ba22f5c8e08ecadcf21eab43aa8b226dd6e7494cf86f8a9",
      "blockNumber": "0xde9787",
      "gasUsed": "0xc2ae",
      "effectiveGasPrice": "0xf0929",
      "from": "0x45d6450fc59a6f8d9c753126ce1eff6fa4d7e0fb",
      "to": "0x73ba7d784d13ec0070a4ea6f49ff57dc007bb48d",
      "contractAddress": null,
      "l1BaseFeeScalar": "0x44d",
      "l1BlobBaseFee": "0xb9942c91c7",
      "l1BlobBaseFeeScalar": "0xa118b",
      "l1Fee": "0x321f7e44de21",
      "l1GasPrice": "0x9ccde0bd1",
      "l1GasUsed": "0x68a"
    }
  ],
  "libraries": [],
  "pending": [],
  "returns": {},
  "timestamp": 1724943858,
  "chain": 84532,
  "commit": "a4713a8"
}